:0400000002002B329D
:01000B0032C2
:0100130032BA
:01001B0032B2
:030023000200EFE9
:06008400E4F524F52575EA
:06008A002600E4F528F554
:0300900029752AA5
:030093001B752BAF
:0300960005752CC1
:030099004E752D74
:03009C0005752EB9
:03009F0041752F79
:0300A200037530B3
:0300A5009375311F
:0300A800037532AB
:0300AB00E17533C9
:0300AE00037534A3
:0300B1002F753573
:0300B4000475369A
:0300B7007D75371D
:0300BA0004753892
:0300BD00CB7539C7
:0400C00004C200C2B4
:0400C40001C202C2B1
:0100C8000334
:0300C9000200260C
:0500260012025F80FEE4
:0E00CC0075C83075CBFF75CAFA75CDFF75CCBF
:0900DA00FA75985010990280009B
:0500E3001098028000EE
:0700E800D2ACD2AFD2CA2254
:0C00EF00C021C0E0C0F0C082C083C0028D
:0E00FB00C003C004C005C006C007C000C0019D
:0C010900C0D075D008C2AC10980280492C
:06011500859922D20030A2
:06011B00034185288285E6
:060121002983E522F00530
:0601270028E4B5280205E2
:01012D0029A8
:07012E00E52845296004C229
:0301350000802621
:04013800C203752465
:03013C007F7525A7
:05013F0005752680900B
:0E014400057F75F08075D00012030975D00894
:0A015200AA82AB83EA14F527D2025B
:02015C00D29936
:05015E0010990280343D
:05016300100102800301
:0301680085239953
:06016B00300229AA24ABBA
:0A01710025AC268A828B838CF012E5
:08017B000321F5990524E4B508
:040183002402052528
:070187001527E527700AC2ED
:05018E0002E4F524F578
:0401930025752600A8
:0E019700D2ACD0D0D001D000D007D006D00519
:0E01A500D004D003D002D083D082D0F0D0E0BE
:0301B300D0213226
:0201B600AA821B
:0701B800A202720140FA8A65
:0601BF0023D201D29922B7
:0601C500AA82AB83ACF03E
:0701CB00A202720140FA8A52
:0401D200248B258CC9
:0C01D600268A828B838CF0120309AA8217
:0701E2008A27D202D2992204
:0A01E900C010858110C082C083C0E1
:0C01F300F0A8100886820886830886F0B9
:0701FF00120309AD827E002E
:04020600EDB506004C
:0C020A00402AC005A81008EE26FFE408FA
:0E02160036FD0886028F828D838AF012032146
:0E022400F582C005C0061201B6D006D0050E48
:04023200D00580D0A3
:06023600851081D01022AA
:04023C007A007B00C9
:0E0240008A828B83E4F0A3AA82AB83EA4B7020
:02024E00F1229B
:04025000C2AFE50054
:06025400F8A6000470FA98
:05025A0060FE70FC22B3
:09025F001200CCD2B5C2B57A0040
:03026800BA0600D3
:0C026B00501DEA2A242EF88603088604A1
:0E027700187D808B828C838DF0C0021201C531
:05028500D0020A80DE3A
:02028A007A00F8
:03028C00BA0200B3
:0C028F00501DEA2A242AF8860308860481
:0E029B00187D808B828C838DF0C0021201C50D
:0502A900D0020A80DE16
:0502AE0010000280FBBE
:0A02B3002003FDAA22BA48028013BE
:0C02BD00BA50219005B975F0801201C5FF
:0702C9002002FDD20380DEDC
:0902D0009005A475F0801201C52F
:0802D9002002FD12025080CD4D
:0702E1008522821201B6AA7A
:0C02E800227B00BA0A09BB000675820DDB
:0302F4001201B63E
:0C02F700AA227B00BA0DB0BB00AD7582DE
:060303000A1201B680A5FC
:0E0341000D0A0D0A5F5F5F20205F5F5F205F87
:0E034F005F5F5F5F202020202020205F5F5F27
:0E035D005F5F5F20205F5F5F5F5F205F5F5F1D
:0E036B005F5F205F5F5F5F5F202020205F5F8D
:0E0379005F5F5F205F5F5F5F5F205F5F5F5FC2
:0C0387005F20205F5F5F5F5F200D0A00B9
:0E0393007C20205C2F20207C2F20205F5F5FCD
:0E03A1007C2020202020207C205F5F5F205CDD
:0E03AF007C20205F20202F20205F5F5F2F200A
:0E03BD00205F5F5F7C20207C20205F20207C62
:0E03CB0020205F20207C20205F5F5F7C2F20A1
:0803D9005F5F20205C0D0A00AB
:0E03E1007C202E20202E207C5C20602D2D2ED6
:0E03EF00205F5F5F5F5F5F7C207C5F2F202FB1
:0E03FD007C207C207C205C20602D2D2E5C203E
:0E040B00602D2D2E202020205C2056202F7CDE
:0E041900207C2F27207C5F5F5F205C20602707
:08042700202F202F270D0A00F1
:0E042F007C207C5C2F7C207C20602D2D2E20DC
:0E043D005C5F5F5F5F5F5F7C205F5F5F205CE6
:0E044B007C207C207C207C602D2D2E205C608F
:0E0459002D2D2E205C2020202F205F205C7C8B
:0E04670020202F7C207C2020205C205C202088
:080475002F202F20200D0A00AA
:0E047D007C207C20207C207C2F5C5F5F2F2069
:0E048B002F2020202020207C207C5F2F202F7F
:0E0499005C205C5F2F202F5C5F5F2F202F5CAC
:0E04A7005F5F2F202F20207C207C5F7C205C5C
:0E04B500207C5F2F202F5C5F5F2F202F2E2FCB
:0804C300202F5F5F5F0D0A00AE
:0E04CB005C5F7C20207C5F2F5C5F5F5F5F2F9B
:0E04D900202020202020205C5F5F5F5F2F200E
:0E04E700205C5F5F5F2F5C5F5F5F5F2F5C5F7D
:0E04F5005F5F5F2F2020205C5F5F5F5F5F2FE7
:0E0503005C5F5F5F2F5C5F5F5F5F2F205C5F60
:0A0511005F5F5F5F2F0D0A0D0A0007
:0E051B004D532D424F53532773203830353245
:0E0529002064657620626F6172642076203156
:0E0537002E302C206275696C642033302F301A
:09054500352F323031360D0A0069
:0E054E0053656E64205020746F206C6F6164E2
:0E055C0020636F64652C2073656E6420482058
:0E056A00746F2068616E672070726F63657336
:07057800736F722E0D0A00E3
:0E057F000D0A363535333520627974657320E8
:0E058D0073756363657366756C6C79206C6FB3
:09059B00616465640D0A0D0A009B
:0E05A400476F696E6720746F20667265657A16
:0705B200652E2E2E0D0A003C
:0E05B900526561647920746F2062652073744E
:0905C7007566666564210D0A00E9
:06005A00E478FFF6D8FD7A
:080038007900E94400601B7A25
:05004000009005D078DE
:030045000075A0A3
:0A00480000E493F2A308B8000205DB
:08005200A0D9F4DAF275A0FF59
:080060007800E84400600A7911
:030068000075A080
:06006B0000E4F309D8FCDB
:080071007800E84400600C79FE
:0B00790000900000E4F0A3D8FCD9FACE
:04030900AA82AB8396
:08030D001203216003A380F834
:0C031500C3E5829AF582E5839BF5832204
:03002B00758139A3
:0A002E0012033DE582600302002684
:0E03210020F71430F6148883A88220F507E632
:06032F00A8837583002283
:03033500E280F76C
:03033800E4932229
:02033B00E022BE
:04033D0075820022A3
:00000001FF
